{"abi":[{"type":"constructor","inputs":[{"name":"name_","type":"string","internalType":"string"},{"name":"symbol_","type":"string","internalType":"string"},{"name":"baseUri_","type":"string","internalType":"string"},{"name":"defaultAdmin","type":"address","internalType":"address"}],"stateMutability":"nonpayable"},{"type":"function","name":"DEFAULT_ADMIN_ROLE","inputs":[],"outputs":[{"name":"","type":"bytes32","internalType":"bytes32"}],"stateMutability":"view"},{"type":"function","name":"MINTER_ROLE","inputs":[],"outputs":[{"name":"","type":"bytes32","internalType":"bytes32"}],"stateMutability":"view"},{"type":"function","name":"PAUSER_ROLE","inputs":[],"outputs":[{"name":"","type":"bytes32","internalType":"bytes32"}],"stateMutability":"view"},{"type":"function","name":"UPGRADER_ROLE","inputs":[],"outputs":[{"name":"","type":"bytes32","internalType":"bytes32"}],"stateMutability":"view"},{"type":"function","name":"approve","inputs":[{"name":"to","type":"address","internalType":"address"},{"name":"tokenId","type":"uint256","internalType":"uint256"}],"outputs":[],"stateMutability":"nonpayable"},{"type":"function","name":"balanceOf","inputs":[{"name":"owner","type":"address","internalType":"address"}],"outputs":[{"name":"","type":"uint256","internalType":"uint256"}],"stateMutability":"view"},{"type":"function","name":"batchMint","inputs":[{"name":"to","type":"address","internalType":"address"},{"name":"metadataArray","type":"tuple[]","internalType":"struct IAsset3DNFT.Asset3DMetadata[]","components":[{"name":"name","type":"string","internalType":"string"},{"name":"description","type":"string","internalType":"string"},{"name":"meshyTaskId","type":"string","internalType":"string"},{"name":"modelUrl","type":"string","internalType":"string"},{"name":"textureUrls","type":"string[]","internalType":"string[]"},{"name":"thumbnailUrl","type":"string","internalType":"string"},{"name":"videoUrl","type":"string","internalType":"string"},{"name":"artStyle","type":"uint8","internalType":"uint8"},{"name":"mode","type":"uint8","internalType":"uint8"},{"name":"hasTexture","type":"bool","internalType":"bool"},{"name":"polycount","type":"uint256","internalType":"uint256"},{"name":"creator","type":"address","internalType":"address"},{"name":"royaltyBps","type":"uint96","internalType":"uint96"},{"name":"createdAt","type":"uint256","internalType":"uint256"}]}],"outputs":[{"name":"tokenIds","type":"uint256[]","internalType":"uint256[]"}],"stateMutability":"nonpayable"},{"type":"function","name":"canUpgrade","inputs":[{"name":"tokenId","type":"uint256","internalType":"uint256"}],"outputs":[{"name":"","type":"bool","internalType":"bool"}],"stateMutability":"view"},{"type":"function","name":"getApproved","inputs":[{"name":"tokenId","type":"uint256","internalType":"uint256"}],"outputs":[{"name":"","type":"address","internalType":"address"}],"stateMutability":"view"},{"type":"function","name":"getAssetMetadata","inputs":[{"name":"tokenId","type":"uint256","internalType":"uint256"}],"outputs":[{"name":"metadata","type":"tuple","internalType":"struct IAsset3DNFT.Asset3DMetadata","components":[{"name":"name","type":"string","internalType":"string"},{"name":"description","type":"string","internalType":"string"},{"name":"meshyTaskId","type":"string","internalType":"string"},{"name":"modelUrl","type":"string","internalType":"string"},{"name":"textureUrls","type":"string[]","internalType":"string[]"},{"name":"thumbnailUrl","type":"string","internalType":"string"},{"name":"videoUrl","type":"string","internalType":"string"},{"name":"artStyle","type":"uint8","internalType":"uint8"},{"name":"mode","type":"uint8","internalType":"uint8"},{"name":"hasTexture","type":"bool","internalType":"bool"},{"name":"polycount","type":"uint256","internalType":"uint256"},{"name":"creator","type":"address","internalType":"address"},{"name":"royaltyBps","type":"uint96","internalType":"uint96"},{"name":"createdAt","type":"uint256","internalType":"uint256"}]}],"stateMutability":"view"},{"type":"function","name":"getAssetsByCreator","inputs":[{"name":"creator","type":"address","internalType":"address"}],"outputs":[{"name":"tokenIds","type":"uint256[]","internalType":"uint256[]"}],"stateMutability":"view"},{"type":"function","name":"getRoleAdmin","inputs":[{"name":"role","type":"bytes32","internalType":"bytes32"}],"outputs":[{"name":"","type":"bytes32","internalType":"bytes32"}],"stateMutability":"view"},{"type":"function","name":"grantRole","inputs":[{"name":"role","type":"bytes32","internalType":"bytes32"},{"name":"account","type":"address","internalType":"address"}],"outputs":[],"stateMutability":"nonpayable"},{"type":"function","name":"hasRole","inputs":[{"name":"role","type":"bytes32","internalType":"bytes32"},{"name":"account","type":"address","internalType":"address"}],"outputs":[{"name":"","type":"bool","internalType":"bool"}],"stateMutability":"view"},{"type":"function","name":"isApprovedForAll","inputs":[{"name":"owner","type":"address","internalType":"address"},{"name":"operator","type":"address","internalType":"address"}],"outputs":[{"name":"","type":"bool","internalType":"bool"}],"stateMutability":"view"},{"type":"function","name":"mint","inputs":[{"name":"to","type":"address","internalType":"address"},{"name":"metadata","type":"tuple","internalType":"struct IAsset3DNFT.Asset3DMetadata","components":[{"name":"name","type":"string","internalType":"string"},{"name":"description","type":"string","internalType":"string"},{"name":"meshyTaskId","type":"string","internalType":"string"},{"name":"modelUrl","type":"string","internalType":"string"},{"name":"textureUrls","type":"string[]","internalType":"string[]"},{"name":"thumbnailUrl","type":"string","internalType":"string"},{"name":"videoUrl","type":"string","internalType":"string"},{"name":"artStyle","type":"uint8","internalType":"uint8"},{"name":"mode","type":"uint8","internalType":"uint8"},{"name":"hasTexture","type":"bool","internalType":"bool"},{"name":"polycount","type":"uint256","internalType":"uint256"},{"name":"creator","type":"address","internalType":"address"},{"name":"royaltyBps","type":"uint96","internalType":"uint96"},{"name":"createdAt","type":"uint256","internalType":"uint256"}]}],"outputs":[{"name":"tokenId","type":"uint256","internalType":"uint256"}],"stateMutability":"nonpayable"},{"type":"function","name":"name","inputs":[],"outputs":[{"name":"","type":"string","internalType":"string"}],"stateMutability":"view"},{"type":"function","name":"ownerOf","inputs":[{"name":"tokenId","type":"uint256","internalType":"uint256"}],"outputs":[{"name":"","type":"address","internalType":"address"}],"stateMutability":"view"},{"type":"function","name":"pause","inputs":[],"outputs":[],"stateMutability":"nonpayable"},{"type":"function","name":"paused","inputs":[],"outputs":[{"name":"","type":"bool","internalType":"bool"}],"stateMutability":"view"},{"type":"function","name":"renounceRole","inputs":[{"name":"role","type":"bytes32","internalType":"bytes32"},{"name":"callerConfirmation","type":"address","internalType":"address"}],"outputs":[],"stateMutability":"nonpayable"},{"type":"function","name":"revokeRole","inputs":[{"name":"role","type":"bytes32","internalType":"bytes32"},{"name":"account","type":"address","internalType":"address"}],"outputs":[],"stateMutability":"nonpayable"},{"type":"function","name":"royaltyInfo","inputs":[{"name":"tokenId","type":"uint256","internalType":"uint256"},{"name":"salePrice","type":"uint256","internalType":"uint256"}],"outputs":[{"name":"receiver","type":"address","internalType":"address"},{"name":"amount","type":"uint256","internalType":"uint256"}],"stateMutability":"view"},{"type":"function","name":"safeTransferFrom","inputs":[{"name":"from","type":"address","internalType":"address"},{"name":"to","type":"address","internalType":"address"},{"name":"tokenId","type":"uint256","internalType":"uint256"}],"outputs":[],"stateMutability":"nonpayable"},{"type":"function","name":"safeTransferFrom","inputs":[{"name":"from","type":"address","internalType":"address"},{"name":"to","type":"address","internalType":"address"},{"name":"tokenId","type":"uint256","internalType":"uint256"},{"name":"data","type":"bytes","internalType":"bytes"}],"outputs":[],"stateMutability":"nonpayable"},{"type":"function","name":"setApprovalForAll","inputs":[{"name":"operator","type":"address","internalType":"address"},{"name":"approved","type":"bool","internalType":"bool"}],"outputs":[],"stateMutability":"nonpayable"},{"type":"function","name":"setBaseUri","inputs":[{"name":"newBaseUri","type":"string","internalType":"string"}],"outputs":[],"stateMutability":"nonpayable"},{"type":"function","name":"supportsInterface","inputs":[{"name":"interfaceId","type":"bytes4","internalType":"bytes4"}],"outputs":[{"name":"","type":"bool","internalType":"bool"}],"stateMutability":"view"},{"type":"function","name":"symbol","inputs":[],"outputs":[{"name":"","type":"string","internalType":"string"}],"stateMutability":"view"},{"type":"function","name":"tokenByIndex","inputs":[{"name":"index","type":"uint256","internalType":"uint256"}],"outputs":[{"name":"","type":"uint256","internalType":"uint256"}],"stateMutability":"view"},{"type":"function","name":"tokenOfOwnerByIndex","inputs":[{"name":"owner","type":"address","internalType":"address"},{"name":"index","type":"uint256","internalType":"uint256"}],"outputs":[{"name":"","type":"uint256","internalType":"uint256"}],"stateMutability":"view"},{"type":"function","name":"tokenURI","inputs":[{"name":"tokenId","type":"uint256","internalType":"uint256"}],"outputs":[{"name":"","type":"string","internalType":"string"}],"stateMutability":"view"},{"type":"function","name":"totalSupply","inputs":[],"outputs":[{"name":"","type":"uint256","internalType":"uint256"}],"stateMutability":"view"},{"type":"function","name":"transferFrom","inputs":[{"name":"from","type":"address","internalType":"address"},{"name":"to","type":"address","internalType":"address"},{"name":"tokenId","type":"uint256","internalType":"uint256"}],"outputs":[],"stateMutability":"nonpayable"},{"type":"function","name":"unpause","inputs":[],"outputs":[],"stateMutability":"nonpayable"},{"type":"function","name":"updateTexture","inputs":[{"name":"tokenId","type":"uint256","internalType":"uint256"},{"name":"textureUrls","type":"string[]","internalType":"string[]"}],"outputs":[],"stateMutability":"nonpayable"},{"type":"function","name":"upgradeAsset","inputs":[{"name":"tokenId","type":"uint256","internalType":"uint256"},{"name":"newModelUrl","type":"string","internalType":"string"},{"name":"newPolycount","type":"uint256","internalType":"uint256"}],"outputs":[],"stateMutability":"nonpayable"},{"type":"event","name":"Approval","inputs":[{"name":"owner","type":"address","indexed":true,"internalType":"address"},{"name":"approved","type":"address","indexed":true,"internalType":"address"},{"name":"tokenId","type":"uint256","indexed":true,"internalType":"uint256"}],"anonymous":false},{"type":"event","name":"ApprovalForAll","inputs":[{"name":"owner","type":"address","indexed":true,"internalType":"address"},{"name":"operator","type":"address","indexed":true,"internalType":"address"},{"name":"approved","type":"bool","indexed":false,"internalType":"bool"}],"anonymous":false},{"type":"event","name":"Asset3DMinted","inputs":[{"name":"tokenId","type":"uint256","indexed":true,"internalType":"uint256"},{"name":"creator","type":"address","indexed":true,"internalType":"address"},{"name":"meshyTaskId","type":"string","indexed":false,"internalType":"string"},{"name":"mode","type":"uint8","indexed":false,"internalType":"uint8"}],"anonymous":false},{"type":"event","name":"AssetUpgraded","inputs":[{"name":"tokenId","type":"uint256","indexed":true,"internalType":"uint256"},{"name":"newModelUrl","type":"string","indexed":false,"internalType":"string"},{"name":"newPolycount","type":"uint256","indexed":false,"internalType":"uint256"}],"anonymous":false},{"type":"event","name":"BaseUriUpdated","inputs":[{"name":"newBaseUri","type":"string","indexed":false,"internalType":"string"}],"anonymous":false},{"type":"event","name":"BatchMetadataUpdate","inputs":[{"name":"_fromTokenId","type":"uint256","indexed":false,"internalType":"uint256"},{"name":"_toTokenId","type":"uint256","indexed":false,"internalType":"uint256"}],"anonymous":false},{"type":"event","name":"MetadataUpdate","inputs":[{"name":"_tokenId","type":"uint256","indexed":false,"internalType":"uint256"}],"anonymous":false},{"type":"event","name":"Paused","inputs":[{"name":"account","type":"address","indexed":false,"internalType":"address"}],"anonymous":false},{"type":"event","name":"RoleAdminChanged","inputs":[{"name":"role","type":"bytes32","indexed":true,"internalType":"bytes32"},{"name":"previousAdminRole","type":"bytes32","indexed":true,"internalType":"bytes32"},{"name":"newAdminRole","type":"bytes32","indexed":true,"internalType":"bytes32"}],"anonymous":false},{"type":"event","name":"RoleGranted","inputs":[{"name":"role","type":"bytes32","indexed":true,"internalType":"bytes32"},{"name":"account","type":"address","indexed":true,"internalType":"address"},{"name":"sender","type":"address","indexed":true,"internalType":"address"}],"anonymous":false},{"type":"event","name":"RoleRevoked","inputs":[{"name":"role","type":"bytes32","indexed":true,"internalType":"bytes32"},{"name":"account","type":"address","indexed":true,"internalType":"address"},{"name":"sender","type":"address","indexed":true,"internalType":"address"}],"anonymous":false},{"type":"event","name":"TextureUpdated","inputs":[{"name":"tokenId","type":"uint256","indexed":true,"internalType":"uint256"},{"name":"textureUrls","type":"string[]","indexed":false,"internalType":"string[]"}],"anonymous":false},{"type":"event","name":"Transfer","inputs":[{"name":"from","type":"address","indexed":true,"internalType":"address"},{"name":"to","type":"address","indexed":true,"internalType":"address"},{"name":"tokenId","type":"uint256","indexed":true,"internalType":"uint256"}],"anonymous":false},{"type":"event","name":"Unpaused","inputs":[{"name":"account","type":"address","indexed":false,"internalType":"address"}],"anonymous":false},{"type":"error","name":"AccessControlBadConfirmation","inputs":[]},{"type":"error","name":"AccessControlUnauthorizedAccount","inputs":[{"name":"account","type":"address","internalType":"address"},{"name":"neededRole","type":"bytes32","internalType":"bytes32"}]},{"type":"error","name":"ERC2981InvalidDefaultRoyalty","inputs":[{"name":"numerator","type":"uint256","internalType":"uint256"},{"name":"denominator","type":"uint256","internalType":"uint256"}]},{"type":"error","name":"ERC2981InvalidDefaultRoyaltyReceiver","inputs":[{"name":"receiver","type":"address","internalType":"address"}]},{"type":"error","name":"ERC2981InvalidTokenRoyalty","inputs":[{"name":"tokenId","type":"uint256","internalType":"uint256"},{"name":"numerator","type":"uint256","internalType":"uint256"},{"name":"denominator","type":"uint256","internalType":"uint256"}]},{"type":"error","name":"ERC2981InvalidTokenRoyaltyReceiver","inputs":[{"name":"tokenId","type":"uint256","internalType":"uint256"},{"name":"receiver","type":"address","internalType":"address"}]},{"type":"error","name":"ERC721EnumerableForbiddenBatchMint","inputs":[]},{"type":"error","name":"ERC721IncorrectOwner","inputs":[{"name":"sender","type":"address","internalType":"address"},{"name":"tokenId","type":"uint256","internalType":"uint256"},{"name":"owner","type":"address","internalType":"address"}]},{"type":"error","name":"ERC721InsufficientApproval","inputs":[{"name":"operator","type":"address","internalType":"address"},{"name":"tokenId","type":"uint256","internalType":"uint256"}]},{"type":"error","name":"ERC721InvalidApprover","inputs":[{"name":"approver","type":"address","internalType":"address"}]},{"type":"error","name":"ERC721InvalidOperator","inputs":[{"name":"operator","type":"address","internalType":"address"}]},{"type":"error","name":"ERC721InvalidOwner","inputs":[{"name":"owner","type":"address","internalType":"address"}]},{"type":"error","name":"ERC721InvalidReceiver","inputs":[{"name":"receiver","type":"address","internalType":"address"}]},{"type":"error","name":"ERC721InvalidSender","inputs":[{"name":"sender","type":"address","internalType":"address"}]},{"type":"error","name":"ERC721NonexistentToken","inputs":[{"name":"tokenId","type":"uint256","internalType":"uint256"}]},{"type":"error","name":"ERC721OutOfBoundsIndex","inputs":[{"name":"owner","type":"address","internalType":"address"},{"name":"index","type":"uint256","internalType":"uint256"}]},{"type":"error","name":"EnforcedPause","inputs":[]},{"type":"error","name":"ExpectedPause","inputs":[]},{"type":"error","name":"ReentrancyGuardReentrantCall","inputs":[]}],"bytecode":{"object":"0x60806040526001601055348015610014575f5ffd5b5060405161882e38038061882e83398181016040528101906100369190610428565b8383815f908161004691906106f0565b50806001908161005691906106f0565b5050506001600f81905550816011908161007091906106f0565b506100835f5f1b8261012060201b60201c565b506100b47f9f2df0fed2c77648de5860a4cc508cd0818c85b8b8a1ab4ceeef8d981c8956a68261012060201b60201c565b506100e57f189ab7a9244df0848122154315af71fe140f3db0fe014031783b0946b8c9d2e38261012060201b60201c565b506101167f65d7a28e3265b37a6474929f336521b332c1681b933f6cb9f3376673440d862a8261012060201b60201c565b50505050506107bf565b5f610131838361021660201b60201c565b61020c576001600d5f8581526020019081526020015f205f015f8473ffffffffffffffffffffffffffffffffffffffff1673ffffffffffffffffffffffffffffffffffffffff1681526020019081526020015f205f6101000a81548160ff0219169083151502179055506101a961027a60201b60201c565b73ffffffffffffffffffffffffffffffffffffffff168273ffffffffffffffffffffffffffffffffffffffff16847f2f8788117e7eff1d82e926ec794901d17c78024a50270940304540a733656f0d60405160405180910390a460019050610210565b5f90505b92915050565b5f600d5f8481526020019081526020015f205f015f8373ffffffffffffffffffffffffffffffffffffffff1673ffffffffffffffffffffffffffffffffffffffff1681526020019081526020015f205f9054906101000a900460ff16905092915050565b5f33905090565b5f604051905090565b5f5ffd5b5f5ffd5b5f5ffd5b5f5ffd5b5f601f19601f8301169050919050565b7f4e487b71000000000000000000000000000000000000000000000000000000005f52604160045260245ffd5b6102e08261029a565b810181811067ffffffffffffffff821117156102ff576102fe6102aa565b5b80604052505050565b5f610311610281565b905061031d82826102d7565b919050565b5f67ffffffffffffffff82111561033c5761033b6102aa565b5b6103458261029a565b9050602081019050919050565b8281835e5f83830152505050565b5f61037261036d84610322565b610308565b90508281526020810184848401111561038e5761038d610296565b5b610399848285610352565b509392505050565b5f82601f8301126103b5576103b4610292565b5b81516103c5848260208601610360565b91505092915050565b5f73ffffffffffffffffffffffffffffffffffffffff82169050919050565b5f6103f7826103ce565b9050919050565b610407816103ed565b8114610411575f5ffd5b50565b5f81519050610422816103fe565b92915050565b5f5f5f5f608085870312156104405761043f61028a565b5b5f85015167ffffffffffffffff81111561045d5761045c61028e565b5b610469878288016103a1565b945050602085015167ffffffffffffffff81111561048a5761048961028e565b5b610496878288016103a1565b935050604085015167ffffffffffffffff8111156104b7576104b661028e565b5b6104c3878288016103a1565b92505060606104d487828801610414565b91505092959194509250565b5f81519050919050565b7f4e487b71000000000000000000000000000000000000000000000000000000005f52602260045260245ffd5b5f600282049050600182168061052e57607f821691505b602082108103610541576105406104ea565b5b50919050565b5f819050815f5260205f209050919050565b5f6020601f8301049050919050565b5f82821b905092915050565b5f600883026105a37fffffffffffffffffffffffffffffffffffffffffffffffffffffffffffffffff82610568565b6105ad8683610568565b95508019841693508086168417925050509392505050565b5f819050919050565b5f819050919050565b5f6105f16105ec6105e7846105c5565b6105ce565b6105c5565b9050919050565b5f819050919050565b61060a836105d7565b61061e610616826105f8565b848454610574565b825550505050565b5f5f905090565b610635610626565b610640818484610601565b505050565b5b81811015610663576106585f8261062d565b600181019050610646565b5050565b601f8211156106a85761067981610547565b61068284610559565b81016020851015610691578190505b6106a561069d85610559565b830182610645565b50505b505050565b5f82821c905092915050565b5f6106c85f19846008026106ad565b1980831691505092915050565b5f6106e083836106b9565b9150826002028217905092915050565b6106f9826104e0565b67ffffffffffffffff811115610712576107116102aa565b5b61071c8254610517565b610727828285610667565b5f60209050601f831160018114610758575f8415610746578287015190505b61075085826106d5565b8655506107b7565b601f19841661076686610547565b5f5b8281101561078d57848901518255600182019150602085019450602081019050610768565b868310156107aa57848901516107a6601f8916826106b9565b8355505b6001600288020188555050505b505050505050565b618062806107cc5f395ff3fe608060405234801561000f575f5ffd5b5060043610610225575f3560e01c806370a082311161012e578063c87b56dd116100b6578063e985e9c51161007a578063e985e9c514610684578063ed5eb958146106b4578063f527e29a146106e4578063f72c0d8b14610714578063fc2564cc1461073257610225565b8063c87b56dd146105cc578063cf2acf84146105fc578063d53913931461062c578063d547741f1461064a578063e63ab1e91461066657610225565b8063a0bcfc7f116100fd578063a0bcfc7f1461053e578063a217fddf1461055a578063a22cb46514610578578063b88d4fde14610594578063c52f7e91146105b057610225565b806370a08231146104b65780638456cb59146104e657806391d14854146104f057806395d89b411461052057610225565b80632a55205a116101b15780633f4ba83a116101805780633f4ba83a1461041257806342842e0e1461041c5780634f6ccce7146104385780635c975abb146104685780636352211e1461048657610225565b80632a55205a146103795780632f2ff15d146103aa5780632f745c59146103c657806336568abe146103f657610225565b8063095ea7b3116101f8578063095ea7b3146102d757806318160ddd146102f357806323b872dd14610311578063248a9ca31461032d578063292a626d1461035d57610225565b806301ffc9a714610229578063037659021461025957806306fdde0314610289578063081812fc146102a7575b5f5ffd5b610243600480360381019061023e9190615dd6565b610762565b6040516102509190615e1b565b60405180910390f35b610273600480360381019061026e9190615eef565b610773565b604051610280919061600c565b60405180910390f35b610291610e63565b60405161029e919061609c565b60405180910390f35b6102c160048036038101906102bc91906160e6565b610ef2565b6040516102ce9190616120565b60405180910390f35b6102f160048036038101906102ec9190616139565b610f0d565b005b6102fb610f23565b6040516103089190616186565b60405180910390f35b61032b6004803603810190610326919061619f565b610f31565b005b61034760048036038101906103429190616222565b611030565b604051610354919061625c565b60405180910390f35b610377600480360381019061037291906162ca565b61104d565b005b610393600480360381019061038e919061633b565b611ce5565b6040516103a1929190616379565b60405180910390f35b6103c460048036038101906103bf91906163a0565b611e07565b005b6103e060048036038101906103db9190616139565b611e29565b6040516103ed9190616186565b60405180910390f35b610410600480360381019061040b91906163a0565b611ecd565b005b61041a611f48565b005b6104366004803603810190610431919061619f565b611f7d565b005b610452600480360381019061044d91906160e6565b611f9c565b60405161045f9190616186565b60405180910390f35b61047061200e565b60405161047d9190615e1b565b60405180910390f35b6104a0600480360381019061049b91906160e6565b612023565b6040516104ad9190616120565b60405180910390f35b6104d060048036038101906104cb91906163de565b612034565b6040516104dd9190616186565b60405180910390f35b6104ee6120ea565b005b61050a600480360381019061050591906163a0565b61211f565b6040516105179190615e1b565b60405180910390f35b610528612183565b604051610535919061609c565b60405180910390f35b61055860048036038101906105539190616409565b612213565b005b61056261226f565b60405161056f919061625c565b60405180910390f35b610592600480360381019061058d919061647e565b612275565b005b6105ae60048036038101906105a991906165e4565b61228b565b005b6105ca60048036038101906105c591906166b9565b6122b0565b005b6105e660048036038101906105e191906160e6565b612a36565b6040516105f3919061609c565b60405180910390f35b610616600480360381019061061191906160e6565b612a48565b60405161062391906169cd565b60405180910390f35b610634613018565b604051610641919061625c565b60405180910390f35b610664600480360381019061065f91906163a0565b61303c565b005b61066e61305e565b60405161067b919061625c565b60405180910390f35b61069e600480360381019061069991906169ed565b613082565b6040516106ab9190615e1b565b60405180910390f35b6106ce60048036038101906106c991906163de565b613110565b6040516106db919061600c565b60405180910390f35b6106fe60048036038101906106f991906160e6565b6131a3565b60405161070b9190615e1b565b60405180910390f35b61071c613774565b604051610729919061625c565b60405180910390f35b61074c60048036038101906107479190616a4e565b613798565b6040516107599190616186565b60405180910390f35b5f61076c82613d43565b9050919050565b60607f9f2df0fed2c77648de5860a4cc508cd0818c85b8b8a1ab4ceeef8d981c8956a661079f81613dbc565b6107a7613dd0565b6107af613e11565b5f84849050116107f4576040517f08c379a00000000000000000000000000000000000000000000000000000000081526004016107eb90616af2565b60405180910390fd5b603284849050111561083b576040517f08c379a000000000000000000000000000000000000000000000000000000000815260040161083290616b5a565b60405180910390fd5b8383905067ffffffffffffffff811115610858576108576164c0565b5b6040519080825280602002602001820160405280156108865781602001602082028036833780820191505090505b5091505f5f90505b84849050811015610e5257368585838181106108ad576108ac616b78565b5b90506020028101906108bf9190616bb1565b90506108ca81613e57565b5f60148280604001906108dd9190616bd9565b6040516108eb929190616c69565b9081526020016040518091039020541461093a576040517f08c379a000000000000000000000000000000000000000000000000000000000815260040161093190616cf1565b60405180910390fd5b5f60105f81548092919061094d90616d3c565b9190505590508085848151811061096757610966616b78565b5b6020026020010181815250505f60125f8381526020019081526020015f20905082805f01906109969190616bd9565b825f0191826109a6929190616f8a565b508280602001906109b79190616bd9565b8260010191826109c8929190616f8a565b508280604001906109d99190616bd9565b8260020191826109ea929190616f8a565b508280606001906109fb9190616bd9565b826003019182610a0c929190616f8a565b50828060a00190610a1d9190616bd9565b826005019182610a2e929190616f8a565b50828060c00190610a3f9190616bd9565b826006019182610a50929190616f8a565b508260e0016020810190610a649190617081565b816007015f6101000a81548160ff021916908360ff16021790555082610100016020810190610a939190617081565b8160070160016101000a81548160ff021916908360ff16021790555082610120016020810190610ac391906170ac565b8160070160026101000a81548160ff021916908315150217905550826101400135816008018190555082610160016020810190610b0091906163de565b816009015f6101000a81548173ffffffffffffffffffffffffffffffffffffffff021916908373ffffffffffffffffffffffffffffffffffffffff16021790555082610180016020810190610b559190617101565b8160090160146101000a8154816bffffffffffffffffffffffff02191690836bffffffffffffffffffffffff160217905550826101a0013581600a01819055505f5f90505b838060800190610baa919061712c565b9050811015610c2e5781600401848060800190610bc7919061712c565b83818110610bd857610bd7616b78565b5b9050602002810190610bea9190616bd9565b90918060018154018082558091505060019003905f5260205f20015f909192909192909192909192509182610c20929190616f8a565b508080600101915050610b9a565b5060135f84610160016020810190610c4691906163de565b73ffffffffffffffffffffffffffffffffffffffff1673ffffffffffffffffffffffffffffffffffffffff1681526020019081526020015f2082908060018154018082558091505060019003905f5260205f20015f9091909190915055816014848060400190610cb69190616bd9565b604051610cc4929190616c69565b908152602001604051809103902081905550610d078284610160016020810190610cee91906163de565b85610180016020810190610d029190617101565b6140e0565b610d11898361428f565b5f610dae8385610d2090617521565b60118054610d2d90616dba565b80601f0160208091040260200160405190810160405280929190818152602001828054610d5990616dba565b8015610da45780601f10610d7b57610100808354040283529160200191610da4565b820191905f5260205f20905b815481529060010190602001808311610d8757829003601f168201915b50505050506142ac565b9050610dba83826142e1565b83610160016020810190610dce91906163de565b73ffffffffffffffffffffffffffffffffffffffff16837f81f51310cedae28d6c547e55d895ec2bfe443b62d052865759e22324573294e6868060400190610e169190616bd9565b88610100016020810190610e2a9190617081565b604051610e399392919061756e565b60405180910390a350505050808060010191505061088e565b50610e5b61433b565b509392505050565b60605f8054610e7190616dba565b80601f0160208091040260200160405190810160405280929190818152602001828054610e9d90616dba565b8015610ee85780601f10610ebf57610100808354040283529160200191610ee8565b820191905f5260205f20905b815481529060010190602001808311610ecb57829003601f168201915b5050505050905090565b5f610efc82614345565b50610f06826143cb565b9050919050565b610f1f8282610f1a614404565b61440b565b5050565b5f610f2c61441d565b905090565b5f73ffffffffffffffffffffffffffffffffffffffff168273ffffffffffffffffffffffffffffffffffffffff1603610fa1575f6040517f64a0ae92000000000000000000000000000000000000000000000000000000008152600401610f989190616120565b60405180910390fd5b5f610fb48383610faf614404565b614429565b90508373ffffffffffffffffffffffffffffffffffffffff168173ffffffffffffffffffffffffffffffffffffffff161461102a578382826040517f64283d7b0000000000000000000000000000000000000000000000000000000081526004016110219392919061759e565b60405180910390fd5b50505050565b5f600d5f8381526020019081526020015f20600101549050919050565b7f189ab7a9244df0848122154315af71fe140f3db0fe014031783b0946b8c9d2e361107781613dbc565b61107f613dd0565b5f73ffffffffffffffffffffffffffffffffffffffff1661109f8661443e565b73ffffffffffffffffffffffffffffffffffffffff16036110f5576040517f08c379a00000000000000000000000000000000000000000000000000000000081526004016110ec9061761d565b60405180910390fd5b5f60125f8781526020019081526020015f20905061164c81604051806101c00160405290815f8201805461112890616dba565b80601f016020809104026020016040519081016040528092919081815260200182805461115490616dba565b801561119f5780601f106111765761010080835404028352916020019161119f565b820191905f5260205f20905b81548152906001019060200180831161118257829003601f168201915b505050505081526020016001820180546111b890616dba565b80601f01602080910402602001604051908101604052809291908181526020018280546111e490616dba565b801561122f5780601f106112065761010080835404028352916020019161122f565b820191905f5260205f20905b81548152906001019060200180831161121257829003601f168201915b5050505050815260200160028201805461124890616dba565b80601f016020809104026020016040519081016040528092919081815260200182805461127490616dba565b80156112bf5780601f10611296576101008083540402835291602001916112bf565b820191905f5260205f20905b8154815290600101906020018083116112a257829003601f168201915b505050505081526020016003820180546112d890616dba565b80601f016020809104026020016040519081016040528092919081815260200182805461130490616dba565b801561134f5780601f106113265761010080835404028352916020019161134f565b820191905f5260205f20905b81548152906001019060200180831161133257829003601f168201915b5050505050815260200160048201805480602002602001604051908101604052809291908181526020015f905b82821015611424578382905f5260205f2001805461139990616dba565b80601f01602080910402602001604051908101604052809291908181526020018280546113c590616dba565b80156114105780601f106113e757610100808354040283529160200191611410565b820191905f5260205f20905b8154815290600101906020018083116113f357829003601f168201915b50505050508152602001906001019061137c565b50505050815260200160058201805461143c90616dba565b80601f016020809104026020016040519081016040528092919081815260200182805461146890616dba565b80156114b35780601f1061148a576101008083540402835291602001916114b3565b820191905f5260205f20905b81548152906001019060200180831161149657829003601f168201915b505050505081526020016006820180546114cc90616dba565b80601f01602080910402602001604051908101604052809291908181526020018280546114f890616dba565b80156115435780601f1061151a57610100808354040283529160200191611543565b820191905f5260205f20905b81548152906001019060200180831161152657829003601f168201915b50505050508152602001600782015f9054906101000a900460ff1660ff1660ff1681526020016007820160019054906101000a900460ff1660ff1660ff1681526020016007820160029054906101000a900460ff1615151515815260200160088201548152602001600982015f9054906101000a900473ffffffffffffffffffffffffffffffffffffffff1673ffffffffffffffffffffffffffffffffffffffff1673ffffffffffffffffffffffffffffffffffffffff1681526020016009820160149054906101000a90046bffffffffffffffffffffffff166bffffffffffffffffffffffff166bffffffffffffffffffffffff168152602001600a82015481525050614477565b61168b576040517f08c379a0000000000000000000000000000000000000000000000000000000008152600401611682906176ab565b60405180910390fd5b848482600301918261169e929190616f8a565b5082816008018190555060018160070160016101000a81548160ff021916908360ff1602179055505f611c948783604051806101c00160405290815f820180546116e790616dba565b80601f016020809104026020016040519081016040528092919081815260200182805461171390616dba565b801561175e5780601f106117355761010080835404028352916020019161175e565b820191905f5260205f20905b81548152906001019060200180831161174157829003601f168201915b5050505050815260200160018201805461177790616dba565b80601f01602080910402602001604051908101604052809291908181526020018280546117a390616dba565b80156117ee5780601f106117c5576101008083540402835291602001916117ee565b820191905f5260205f20905b8154815290600101906020018083116117d157829003601f168201915b5050505050815260200160028201805461180790616dba565b80601f016020809104026020016040519081016040528092919081815260200182805461183390616dba565b801561187e5780601f106118555761010080835404028352916020019161187e565b820191905f5260205f20905b81548152906001019060200180831161186157829003601f168201915b5050505050815260200160038201805461189790616dba565b80601f01602080910402602001604051908101604052809291908181526020018280546118c390616dba565b801561190e5780601f106118e55761010080835404028352916020019161190e565b820191905f5260205f20905b8154815290600101906020018083116118f157829003601f168201915b5050505050815260200160048201805480602002602001604051908101604052809291908181526020015f905b828210156119e3578382905f5260205f2001805461195890616dba565b80601f016020809104026020016040519081016040528092919081815260200182805461198490616dba565b80156119cf5780601f106119a6576101008083540402835291602001916119cf565b820191905f5260205f20905b8154815290600101906020018083116119b257829003601f168201915b50505050508152602001906001019061193b565b5050505081526020016005820180546119fb90616dba565b80601f0160208091040260200160405190810160405280929190818152602001828054611a2790616dba565b8015611a725780601f10611a4957610100808354040283529160200191611a72565b820191905f5260205f20905b815481529060010190602001808311611a5557829003601f168201915b50505050508152602001600682018054611a8b90616dba565b80601f0160208091040260200160405190810160405280929190818152602001828054611ab790616dba565b8015611b025780601f10611ad957610100808354040283529160200191611b02565b820191905f5260205f20905b815481529060010190602001808311611ae557829003601f168201915b50505050508152602001600782015f9054906101000a900460ff1660ff1660ff1681526020016007820160019054906101000a900460ff1660ff1660ff1681526020016007820160029054906101000a900460ff1615151515815260200160088201548152602001600982015f9054906101000a900473ffffffffffffffffffffffffffffffffffffffff1673ffffffffffffffffffffffffffffffffffffffff1673ffffffffffffffffffffffffffffffffffffffff1681526020016009820160149054906101000a90046bffffffffffffffffffffffff166bffffffffffffffffffffffff166bffffffffffffffffffffffff168152602001600a8201548152505060118054611c1390616dba565b80601f0160208091040260200160405190810160405280929190818152602001828054611c3f90616dba565b8015611c8a5780601f10611c6157610100808354040283529160200191611c8a565b820191905f5260205f20905b815481529060010190602001808311611c6d57829003601f168201915b50505050506142ac565b9050611ca087826142e1565b867f09dff11ff90498163cf86e739d2e827b6f373ffe8ca7af3e52364341667e29d7878787604051611cd4939291906176c9565b60405180910390a250505050505050565b5f5f5f600c5f8681526020019081526020015f2090505f815f015f9054906101000a900473ffffffffffffffffffffffffffffffffffffffff1690505f825f0160149054906101000a90046bffffffffffffffffffffffff1690505f73ffffffffffffffffffffffffffffffffffffffff168273ffffffffffffffffffffffffffffffffffffffff1603611db957600b5f015f9054906101000a900473ffffffffffffffffffffffffffffffffffffffff169150600b5f0160149054906101000a90046bffffffffffffffffffffffff1690505b5f611dc261448a565b6bffffffffffffffffffffffff16826bffffffffffffffffffffffff1688611dea91906176f9565b611df49190617767565b9050828195509550505050509250929050565b611e1082611030565b611e1981613dbc565b611e238383614493565b50505050565b5f611e3383612034565b8210611e785782826040517fa57d13dc000000000000000000000000000000000000000000000000000000008152600401611e6f929190616379565b60405180910390fd5b60075f8473ffffffffffffffffffffffffffffffffffffffff1673ffffffffffffffffffffffffffffffffffffffff1681526020019081526020015f205f8381526020019081526020015f2054905092915050565b611ed5614404565b73ffffffffffffffffffffffffffffffffffffffff168173ffffffffffffffffffffffffffffffffffffffff1614611f39576040517f6697b23200000000000000000000000000000000000000000000000000000000815260040160405180910390fd5b611f43828261457d565b505050565b7f65d7a28e3265b37a6474929f336521b332c1681b933f6cb9f3376673440d862a611f7281613dbc565b611f7a614667565b50565b611f9783838360405180602001604052805f81525061228b565b505050565b5f611fa5610f23565b8210611fea575f826040517fa57d13dc000000000000000000000000000000000000000000000000000000008152600401611fe1929190616379565b60405180910390fd5b60098281548110611ffe57611ffd616b78565b5b905f5260205f2001549050919050565b5f600e5f9054906101000a900460ff16905090565b5f61202d82614345565b9050919050565b5f5f73ffffffffffffffffffffffffffffffffffffffff168273ffffffffffffffffffffffffffffffffffffffff16036120a5575f6040517f89c62b6400000000000000000000000000000000000000000000000000000000815260040161209c9190616120565b60405180910390fd5b60035f8373ffffffffffffffffffffffffffffffffffffffff1673ffffffffffffffffffffffffffffffffffffffff1681526020019081526020015f20549050919050565b7f65d7a28e3265b37a6474929f336521b332c1681b933f6cb9f3376673440d862a61211481613dbc565b61211c6146c8565b50565b5f600d5f8481526020019081526020015f205f015f8373ffffffffffffffffffffffffffffffffffffffff1673ffffffffffffffffffffffffffffffffffffffff1681526020019081526020015f205f9054906101000a900460ff16905092915050565b60606001805461219290616dba565b80601f01602080910402602001604051908101604052809291908181526020018280546121be90616dba565b80156122095780601f106121e057610100808354040283529160200191612209565b820191905f5260205f20905b8154815290600101906020018083116121ec57829003601f168201915b5050505050905090565b5f5f1b61221f81613dbc565b828260119182612230929190616f8a565b507f24a9152dc695ecc801ad580886331ee12d7aac0fa2ae341a5ae3c2ccae36cb4f8383604051612262929190617797565b60405180910390a1505050565b5f5f1b81565b612287612280614404565b838361472a565b5050565b612296848484610f31565b6122aa6122a1614404565b85858585614893565b50505050565b7f189ab7a9244df0848122154315af71fe140f3db0fe014031783b0946b8c9d2e36122da81613dbc565b6122e2613dd0565b5f73ffffffffffffffffffffffffffffffffffffffff166123028561443e565b73ffffffffffffffffffffffffffffffffffffffff1603612358576040517f08c379a000000000000000000000000000000000000000000000000000000000815260040161234f9061761d565b60405180910390fd5b5f60125f8681526020019081526020015f209050806004015f61237b9190615c43565b5f5f90505b848490508110156123f857816004018585838181106123a2576123a1616b78565b5b90506020028101906123b49190616bd9565b90918060018154018082558091505060019003905f5260205f20015f9091929091929091929091925091826123ea929190616f8a565b508080600101915050612380565b505f84849050118160070160026101000a81548160ff0219169083151502179055505f6129e88683604051806101c00160405290815f8201805461243b90616dba565b80601f016020809104026020016040519081016040528092919081815260200182805461246790616dba565b80156124b25780601f10612489576101008083540402835291602001916124b2565b820191905f5260205f20905b81548152906001019060200180831161249557829003601f168201915b505050505081526020016001820180546124cb90616dba565b80601f01602080910402602001604051908101604052809291908181526020018280546124f790616dba565b80156125425780601f1061251957610100808354040283529160200191612542565b820191905f5260205f20905b81548152906001019060200180831161252557829003601f168201915b5050505050815260200160028201805461255b90616dba565b80601f016020809104026020016040519081016040528092919081815260200182805461258790616dba565b80156125d25780601f106125a9576101008083540402835291602001916125d2565b820191905f5260205f20905b8154815290600101906020018083116125b557829003601f168201915b505050505081526020016003820180546125eb90616dba565b80601f016020809104026020016040519081016040528092919081815260200182805461261790616dba565b80156126625780601f1061263957610100808354040283529160200191612662565b820191905f5260205f20905b81548152906001019060200180831161264557829003601f168201915b5050505050815260200160048201805480602002602001604051908101604052809291908181526020015f905b82821015612737578382905f5260205f200180546126ac90616dba565b80601f01602080910402602001604051908101604052809291908181526020018280546126d890616dba565b80156127235780601f106126fa57610100808354040283529160200191612723565b820191905f5260205f20905b81548152906001019060200180831161270657829003601f168201915b50505050508152602001906001019061268f565b50505050815260200160058201805461274f90616dba565b80601f016020809104026020016040519081016040528092919081815260200182805461277b90616dba565b80156127c65780601f1061279d576101008083540402835291602001916127c6565b820191905f5260205f20905b8154815290600101906020018083116127a957829003601f168201915b505050505081526020016006820180546127df90616dba565b80601f016020809104026020016040519081016040528092919081815260200182805461280b90616dba565b80156128565780601f1061282d57610100808354040283529160200191612856565b820191905f5260205f20905b81548152906001019060200180831161283957829003601f168201915b50505050508152602001600782015f9054906101000a900460ff1660ff1660ff1681526020016007820160019054906101000a900460ff1660ff1660ff1681526020016007820160029054906101000a900460ff1615151515815260200160088201548152602001600982015f9054906101000a900473ffffffffffffffffffffffffffffffffffffffff1673ffffffffffffffffffffffffffffffffffffffff1673ffffffffffffffffffffffffffffffffffffffff1681526020016009820160149054906101000a90046bffffffffffffffffffffffff166bffffffffffffffffffffffff166bffffffffffffffffffffffff168152602001600a820154815250506011805461296790616dba565b80601f016020809104026020016040519081016040528092919081815260200182805461299390616dba565b80156129de5780601f106129b5576101008083540402835291602001916129de565b820191905f5260205f20905b8154815290600101906020018083116129c157829003601f168201915b50505050506142ac565b90506129f486826142e1565b857fb86b033779cd08d00fb399845946387130733dd534587e06991ea1e141a19d7d8686604051612a26929190617901565b60405180910390a2505050505050565b6060612a4182614a3f565b9050919050565b612a50615c61565b5f73ffffffffffffffffffffffffffffffffffffffff16612a708361443e565b73ffffffffffffffffffffffffffffffffffffffff1603612ac6576040517f08c379a0000000000000000000000000000000000000000000000000000000008152600401612abd9061761d565b60405180910390fd5b60125f8381526020019081526020015f20604051806101c00160405290815f82018054612af290616dba565b80601f0160208091040260200160405190810160405280929190818152602001828054612b1e90616dba565b8015612b695780601f10612b4057610100808354040283529160200191612b69565b820191905f5260205f20905b815481529060010190602001808311612b4c57829003601f168201915b50505050508152602001600182018054612b8290616dba565b80601f0160208091040260200160405190810160405280929190818152602001828054612bae90616dba565b8015612bf95780601f10612bd057610100808354040283529160200191612bf9565b820191905f5260205f20905b815481529060010190602001808311612bdc57829003601f168201915b50505050508152602001600282018054612c1290616dba565b80601f0160208091040260200160405190810160405280929190818152602001828054612c3e90616dba565b8015612c895780601f10612c6057610100808354040283529160200191612c89565b820191905f5260205f20905b815481529060010190602001808311612c6c57829003601f168201915b50505050508152602001600382018054612ca290616dba565b80601f0160208091040260200160405190810160405280929190818152602001828054612cce90616dba565b8015612d195780601f10612cf057610100808354040283529160200191612d19565b820191905f5260205f20905b815481529060010190602001808311612cfc57829003601f168201915b5050505050815260200160048201805480602002602001604051908101604052809291908181526020015f905b82821015612dee578382905f5260205f20018054612d6390616dba565b80601f0160208091040260200160405190810160405280929190818152602001828054612d8f90616dba565b8015612dda5780601f10612db157610100808354040283529160200191612dda565b820191905f5260205f20905b815481529060010190602001808311612dbd57829003601f168201915b505050505081526020019060010190612d46565b505050508152602001600582018054612e0690616dba565b80601f0160208091040260200160405190810160405280929190818152602001828054612e3290616dba565b8015612e7d5780601f10612e5457610100808354040283529160200191612e7d565b820191905f5260205f20905b815481529060010190602001808311612e6057829003601f168201915b50505050508152602001600682018054612e9690616dba565b80601f0160208091040260200160405190810160405280929190818152602001828054612ec290616dba565b8015612f0d5780601f10612ee457610100808354040283529160200191612f0d565b820191905f5260205f20905b815481529060010190602001808311612ef057829003601f168201915b50505050508152602001600782015f9054906101000a900460ff1660ff1660ff1681526020016007820160019054906101000a900460ff1660ff1660ff1681526020016007820160029054906101000a900460ff1615151515815260200160088201548152602001600982015f9054906101000a900473ffffffffffffffffffffffffffffffffffffffff1673ffffffffffffffffffffffffffffffffffffffff1673ffffffffffffffffffffffffffffffffffffffff1681526020016009820160149054906101000a90046bffffffffffffffffffffffff166bffffffffffffffffffffffff166bffffffffffffffffffffffff168152602001600a820154815250509050919050565b7f9f2df0fed2c77648de5860a4cc508cd0818c85b8b8a1ab4ceeef8d981c8956a681565b61304582611030565b61304e81613dbc565b613058838361457d565b50505050565b7f65d7a28e3265b37a6474929f336521b332c1681b933f6cb9f3376673440d862a81565b5f60055f8473ffffffffffffffffffffffffffffffffffffffff1673ffffffffffffffffffffffffffffffffffffffff1681526020019081526020015f205f8373ffffffffffffffffffffffffffffffffffffffff1673ffffffffffffffffffffffffffffffffffffffff1681526020019081526020015f205f9054906101000a900460ff16905092915050565b606060135f8373ffffffffffffffffffffffffffffffffffffffff1673ffffffffffffffffffffffffffffffffffffffff1681526020019081526020015f2080548060200260200160405190810160405280929190818152602001828054801561319757602002820191905f5260205f20905b815481526020019060010190808311613183575b50505050509050919050565b5f5f73ffffffffffffffffffffffffffffffffffffffff166131c48361443e565b73ffffffffffffffffffffffffffffffffffffffff160361321a576040517f08c379a00000000000000000000000000000000000000000000000000000000081526004016132119061761d565b60405180910390fd5b61376d60125f8481526020019081526020015f20604051806101c00160405290815f8201805461324990616dba565b80601f016020809104026020016040519081016040528092919081815260200182805461327590616dba565b80156132c05780601f10613297576101008083540402835291602001916132c0565b820191905f5260205f20905b8154815290600101906020018083116132a357829003601f168201915b505050505081526020016001820180546132d990616dba565b80601f016020809104026020016040519081016040528092919081815260200182805461330590616dba565b80156133505780601f1061332757610100808354040283529160200191613350565b820191905f5260205f20905b81548152906001019060200180831161333357829003601f168201915b5050505050815260200160028201805461336990616dba565b80601f016020809104026020016040519081016040528092919081815260200182805461339590616dba565b80156133e05780601f106133b7576101008083540402835291602001916133e0565b820191905f5260205f20905b8154815290600101906020018083116133c357829003601f168201915b505050505081526020016003820180546133f990616dba565b80601f016020809104026020016040519081016040528092919081815260200182805461342590616dba565b80156134705780601f1061344757610100808354040283529160200191613470565b820191905f5260205f20905b81548152906001019060200180831161345357829003601f168201915b5050505050815260200160048201805480602002602001604051908101604052809291908181526020015f905b82821015613545578382905f5260205f200180546134ba90616dba565b80601f01602080910402602001604051908101604052809291908181526020018280546134e690616dba565b80156135315780601f1061350857610100808354040283529160200191613531565b820191905f5260205f20905b81548152906001019060200180831161351457829003601f168201915b50505050508152602001906001019061349d565b50505050815260200160058201805461355d90616dba565b80601f016020809104026020016040519081016040528092919081815260200182805461358990616dba565b80156135d45780601f106135ab576101008083540402835291602001916135d4565b820191905f5260205f20905b8154815290600101906020018083116135b757829003601f168201915b505050505081526020016006820180546135ed90616dba565b80601f016020809104026020016040519081016040528092919081815260200182805461361990616dba565b80156136645780601f1061363b57610100808354040283529160200191613664565b820191905f5260205f20905b81548152906001019060200180831161364757829003601f168201915b50505050508152602001600782015f9054906101000a900460ff1660ff1660ff1681526020016007820160019054906101000a900460ff1660ff1660ff1681526020016007820160029054906101000a900460ff1615151515815260200160088201548152602001600982015f9054906101000a900473ffffffffffffffffffffffffffffffffffffffff1673ffffffffffffffffffffffffffffffffffffffff1673ffffffffffffffffffffffffffffffffffffffff1681526020016009820160149054906101000a90046bffffffffffffffffffffffff166bffffffffffffffffffffffff166bffffffffffffffffffffffff168152602001600a82015481525050614477565b9050919050565b7f189ab7a9244df0848122154315af71fe140f3db0fe014031783b0946b8c9d2e381565b5f7f9f2df0fed2c77648de5860a4cc508cd0818c85b8b8a1ab4ceeef8d981c8956a66137c381613dbc565b6137cb613dd0565b6137d3613e11565b6137dc83613e57565b5f60148480604001906137ef9190616bd9565b6040516137fd929190616c69565b9081526020016040518091039020541461384c576040517f08c379a000000000000000000000000000000000000000000000000000000000815260040161384390616cf1565b60405180910390fd5b60105f81548092919061385e90616d3c565b9190505591505f60125f8481526020019081526020015f20905083805f01906138879190616bd9565b825f019182613897929190616f8a565b508380602001906138a89190616bd9565b8260010191826138b9929190616f8a565b508380604001906138ca9190616bd9565b8260020191826138db929190616f8a565b508380606001906138ec9190616bd9565b8260030191826138fd929190616f8a565b50838060a0019061390e9190616bd9565b82600501918261391f929190616f8a565b50838060c001906139309190616bd9565b826006019182613941929190616f8a565b508360e00160208101906139559190617081565b816007015f6101000a81548160ff021916908360ff160217905550836101000160208101906139849190617081565b8160070160016101000a81548160ff021916908360ff160217905550836101200160208101906139b491906170ac565b8160070160026101000a81548160ff0219169083151502179055508361014001358160080181905550836101600160208101906139f191906163de565b816009015f6101000a81548173ffffffffffffffffffffffffffffffffffffffff021916908373ffffffffffffffffffffffffffffffffffffffff16021790555083610180016020810190613a469190617101565b8160090160146101000a8154816bffffffffffffffffffffffff02191690836bffffffffffffffffffffffff160217905550836101a0013581600a01819055505f5f90505b848060800190613a9b919061712c565b9050811015613b1f5781600401858060800190613ab8919061712c565b83818110613ac957613ac8616b78565b5b9050602002810190613adb9190616bd9565b90918060018154018082558091505060019003905f5260205f20015f909192909192909192909192509182613b11929190616f8a565b508080600101915050613a8b565b5060135f85610160016020810190613b3791906163de565b73ffffffffffffffffffffffffffffffffffffffff1673ffffffffffffffffffffffffffffffffffffffff1681526020019081526020015f2083908060018154018082558091505060019003905f5260205f20015f9091909190915055826014858060400190613ba79190616bd9565b604051613bb5929190616c69565b908152602001604051809103902081905550613bf88385610160016020810190613bdf91906163de565b86610180016020810190613bf39190617101565b6140e0565b613c02858461428f565b5f613c9f8486613c1190617521565b60118054613c1e90616dba565b80601f0160208091040260200160405190810160405280929190818152602001828054613c4a90616dba565b8015613c955780601f10613c6c57610100808354040283529160200191613c95565b820191905f5260205f20905b815481529060010190602001808311613c7857829003601f168201915b50505050506142ac565b9050613cab84826142e1565b84610160016020810190613cbf91906163de565b73ffffffffffffffffffffffffffffffffffffffff16847f81f51310cedae28d6c547e55d895ec2bfe443b62d052865759e22324573294e6878060400190613d079190616bd9565b89610100016020810190613d1b9190617081565b604051613d2a9392919061756e565b60405180910390a35050613d3c61433b565b5092915050565b5f7f7965db0b000000000000000000000000000000000000000000000000000000007bffffffffffffffffffffffffffffffffffffffffffffffffffffffff1916827bffffffffffffffffffffffffffffffffffffffffffffffffffffffff19161480613db55750613db482614b4a565b5b9050919050565b613dcd81613dc8614404565b614bc3565b50565b613dd861200e565b15613e0f576040517fd93c066500000000000000000000000000000000000000000000000000000000815260040160405180910390fd5b565b6002600f5403613e4d576040517f3ee5aeb500000000000000000000000000000000000000000000000000000000815260040160405180910390fd5b6002600f81905550565b5f81805f0190613e679190616bd9565b905011613ea9576040517f08c379a0000000000000000000000000000000000000000000000000000000008152600401613ea090617993565b60405180910390fd5b5f818060600190613eba9190616bd9565b905011613efc576040517f08c379a0000000000000000000000000000000000000000000000000000000008152600401613ef390617a21565b60405180910390fd5b5f73ffffffffffffffffffffffffffffffffffffffff1681610160016020810190613f2791906163de565b73ffffffffffffffffffffffffffffffffffffffff1603613f7d576040517f08c379a0000000000000000000000000000000000000000000000000000000008152600401613f7490617aaf565b60405180910390fd5b61271081610180016020810190613f949190617101565b6bffffffffffffffffffffffff161115613fe3576040517f08c379a0000000000000000000000000000000000000000000000000000000008152600401613fda90617b3d565b60405180910390fd5b60018160e0016020810190613ff89190617081565b60ff16111561403c576040517f08c379a000000000000000000000000000000000000000000000000000000000815260040161403390617ba5565b60405180910390fd5b6001816101000160208101906140529190617081565b60ff161115614096576040517f08c379a000000000000000000000000000000000000000000000000000000000815260040161408d90617c0d565b60405180910390fd5b5f816101400135116140dd576040517f08c379a00000000000000000000000000000000000000000000000000000000081526004016140d490617c9b565b60405180910390fd5b50565b5f6140e961448a565b6bffffffffffffffffffffffff16905080826bffffffffffffffffffffffff161115614150578382826040517fdfd1fc1b00000000000000000000000000000000000000000000000000000000815260040161414793929190617ce9565b60405180910390fd5b5f73ffffffffffffffffffffffffffffffffffffffff168373ffffffffffffffffffffffffffffffffffffffff16036141c257835f6040517f969f08520000000000000000000000000000000000000000000000000000000081526004016141b9929190617d1e565b60405180910390fd5b60405180604001604052808473ffffffffffffffffffffffffffffffffffffffff168152602001836bffffffffffffffffffffffff16815250600c5f8681526020019081526020015f205f820151815f015f6101000a81548173ffffffffffffffffffffffffffffffffffffffff021916908373ffffffffffffffffffffffffffffffffffffffff1602179055506020820151815f0160146101000a8154816bffffffffffffffffffffffff02191690836bffffffffffffffffffffffff16021790555090505050505050565b6142a8828260405180602001604052805f815250614c14565b5050565b6060816142b885614c37565b6040516020016142c9929190617d75565b60405160208183030381529060405290509392505050565b8060065f8481526020019081526020015f2090816142ff9190617d98565b507ff8e1a15aba9398e019f0b49df1a4fde98ee17ae345cb5f6b5e2c27f5033e8ce78260405161432f9190616186565b60405180910390a15050565b6001600f81905550565b5f5f6143508361443e565b90505f73ffffffffffffffffffffffffffffffffffffffff168173ffffffffffffffffffffffffffffffffffffffff16036143c257826040517f7e2732890000000000000000000000000000000000000000000000000000000081526004016143b99190616186565b60405180910390fd5b80915050919050565b5f60045f8381526020019081526020015f205f9054906101000a900473ffffffffffffffffffffffffffffffffffffffff169050919050565b5f33905090565b6144188383836001614d90565b505050565b5f600980549050905090565b5f614435848484614f4f565b90509392505050565b5f60025f8381526020019081526020015f205f9054906101000a900473ffffffffffffffffffffffffffffffffffffffff169050919050565b5f5f82610100015160ff16149050919050565b5f612710905090565b5f61449e838361211f565b614573576001600d5f8581526020019081526020015f205f015f8473ffffffffffffffffffffffffffffffffffffffff1673ffffffffffffffffffffffffffffffffffffffff1681526020019081526020015f205f6101000a81548160ff021916908315150217905550614510614404565b73ffffffffffffffffffffffffffffffffffffffff168273ffffffffffffffffffffffffffffffffffffffff16847f2f8788117e7eff1d82e926ec794901d17c78024a50270940304540a733656f0d60405160405180910390a460019050614577565b5f90505b92915050565b5f614588838361211f565b1561465d575f600d5f8581526020019081526020015f205f015f8473ffffffffffffffffffffffffffffffffffffffff1673ffffffffffffffffffffffffffffffffffffffff1681526020019081526020015f205f6101000a81548160ff0219169083151502179055506145fa614404565b73ffffffffffffffffffffffffffffffffffffffff168273ffffffffffffffffffffffffffffffffffffffff16847ff6391f5c32d9c69d2a47ea670b442974b53935d1edc7fd64eb21e047a839171b60405160405180910390a460019050614661565b5f90505b92915050565b61466f615069565b5f600e5f6101000a81548160ff0219169083151502179055507f5db9ee0a495bf2e6ff9c91a7834c1ba4fdd244a5e8aa4e537bd38aeae4b073aa6146b1614404565b6040516146be9190616120565b60405180910390a1565b6146d0613dd0565b6001600e5f6101000a81548160ff0219169083151502179055507f62e78cea01bee320cd4e420270b5ea74000d11b0c9f74754ebdbfc544b05a258614713614404565b6040516147209190616120565b60405180910390a1565b5f73ffffffffffffffffffffffffffffffffffffffff168273ffffffffffffffffffffffffffffffffffffffff160361479a57816040517f5b08ba180000000000000000000000000000000000000000000000000000000081526004016147919190616120565b60405180910390fd5b8060055f8573ffffffffffffffffffffffffffffffffffffffff1673ffffffffffffffffffffffffffffffffffffffff1681526020019081526020015f205f8473ffffffffffffffffffffffffffffffffffffffff1673ffffffffffffffffffffffffffffffffffffffff1681526020019081526020015f205f6101000a81548160ff0219169083151502179055508173ffffffffffffffffffffffffffffffffffffffff168373ffffffffffffffffffffffffffffffffffffffff167f17307eab39ab6107e8899845ad3d59bd9653f200f220920489ca2b5937696c31836040516148869190615e1b565b60405180910390a3505050565b5f8373ffffffffffffffffffffffffffffffffffffffff163b1115614a38578273ffffffffffffffffffffffffffffffffffffffff1663150b7a02868685856040518563ffffffff1660e01b81526004016148f19493929190617eb9565b6020604051808303815f875af192505050801561492c57506040513d601f19601f820116820180604052508101906149299190617f17565b60015b6149ad573d805f811461495a576040519150601f19603f3d011682016040523d82523d5f602084013e61495f565b606091505b505f8151036149a557836040517f64a0ae9200000000000000000000000000000000000000000000000000000000815260040161499c9190616120565b60405180910390fd5b805160208201fd5b63150b7a0260e01b7bffffffffffffffffffffffffffffffffffffffffffffffffffffffff1916817bffffffffffffffffffffffffffffffffffffffffffffffffffffffff191614614a3657836040517f64a0ae92000000000000000000000000000000000000000000000000000000008152600401614a2d9190616120565b60405180910390fd5b505b5050505050565b6060614a4a82614345565b505f60065f8481526020019081526020015f208054614a6890616dba565b80601f0160208091040260200160405190810160405280929190818152602001828054614a9490616dba565b8015614adf5780601f10614ab657610100808354040283529160200191614adf565b820191905f5260205f20905b815481529060010190602001808311614ac257829003601f168201915b505050505090505f614aef6150a9565b90505f815103614b03578192505050614b45565b5f82511115614b37578082604051602001614b1f929190617d75565b60405160208183030381529060405292505050614b45565b614b40846150bf565b925050505b919050565b5f7f2a55205a000000000000000000000000000000000000000000000000000000007bffffffffffffffffffffffffffffffffffffffffffffffffffffffff1916827bffffffffffffffffffffffffffffffffffffffffffffffffffffffff19161480614bbc5750614bbb82615125565b5b9050919050565b614bcd828261211f565b614c105780826040517fe2517d3f000000000000000000000000000000000000000000000000000000008152600401614c07929190617f42565b60405180910390fd5b5050565b614c1e838361519e565b614c32614c29614404565b5f858585614893565b505050565b60605f8203614c7d576040518060400160405280600181526020017f30000000000000000000000000000000000000000000000000000000000000008152509050614d8b565b5f8290505f5b5f8214614cac578080614c9590616d3c565b915050600a82614ca59190617767565b9150614c83565b5f8167ffffffffffffffff811115614cc757614cc66164c0565b5b6040519080825280601f01601f191660200182016040528015614cf95781602001600182028036833780820191505090505b5090505b5f8514614d8457600182614d119190617f69565b9150600a85614d209190617f9c565b6030614d2c9190617fcc565b60f81b818381518110614d4257614d41616b78565b5b60200101907effffffffffffffffffffffffffffffffffffffffffffffffffffffffffffff191690815f1a905350600a85614d7d9190617767565b9450614cfd565b8093505050505b919050565b8080614dc857505f73ffffffffffffffffffffffffffffffffffffffff168273ffffffffffffffffffffffffffffffffffffffff1614155b15614efa575f614dd784614345565b90505f73ffffffffffffffffffffffffffffffffffffffff168373ffffffffffffffffffffffffffffffffffffffff1614158015614e4157508273ffffffffffffffffffffffffffffffffffffffff168173ffffffffffffffffffffffffffffffffffffffff1614155b8015614e545750614e528184613082565b155b15614e9657826040517fa9fbf51f000000000000000000000000000000000000000000000000000000008152600401614e8d9190616120565b60405180910390fd5b8115614ef857838573ffffffffffffffffffffffffffffffffffffffff168273ffffffffffffffffffffffffffffffffffffffff167f8c5be1e5ebec7d5bd14f71427d1e84f3dd0314c0f7b2291e5b200ac8c7c3b92560405160405180910390a45b505b8360045f8581526020019081526020015f205f6101000a81548173ffffffffffffffffffffffffffffffffffffffff021916908373ffffffffffffffffffffffffffffffffffffffff16021790555050505050565b5f5f614f5c858585615291565b90505f73ffffffffffffffffffffffffffffffffffffffff168173ffffffffffffffffffffffffffffffffffffffff1603614f9f57614f9a8461549c565b614fde565b8473ffffffffffffffffffffffffffffffffffffffff168173ffffffffffffffffffffffffffffffffffffffff1614614fdd57614fdc81856154e0565b5b5b5f73ffffffffffffffffffffffffffffffffffffffff168573ffffffffffffffffffffffffffffffffffffffff160361501f5761501a846155b7565b61505e565b8473ffffffffffffffffffffffffffffffffffffffff168173ffffffffffffffffffffffffffffffffffffffff161461505d5761505c8585615677565b5b5b809150509392505050565b61507161200e565b6150a7576040517f8dfc202b00000000000000000000000000000000000000000000000000000000815260040160405180910390fd5b565b606060405180602001604052805f815250905090565b60606150ca82614345565b505f6150d46150a9565b90505f8151116150f25760405180602001604052805f81525061511d565b806150fc846156fb565b60405160200161510d929190617d75565b6040516020818303038152906040525b915050919050565b5f7f780e9d63000000000000000000000000000000000000000000000000000000007bffffffffffffffffffffffffffffffffffffffffffffffffffffffff1916827bffffffffffffffffffffffffffffffffffffffffffffffffffffffff191614806151975750615196826157c5565b5b9050919050565b5f73ffffffffffffffffffffffffffffffffffffffff168273ffffffffffffffffffffffffffffffffffffffff160361520e575f6040517f64a0ae920000000000000000000000000000000000000000000000000000000081526004016152059190616120565b60405180910390fd5b5f61521a83835f614429565b90505f73ffffffffffffffffffffffffffffffffffffffff168173ffffffffffffffffffffffffffffffffffffffff161461528c575f6040517f73c6ac6e0000000000000000000000000000000000000000000000000000000081526004016152839190616120565b60405180910390fd5b505050565b5f5f61529c8461443e565b90505f73ffffffffffffffffffffffffffffffffffffffff168373ffffffffffffffffffffffffffffffffffffffff16146152dd576152dc818486615825565b5b5f73ffffffffffffffffffffffffffffffffffffffff168173ffffffffffffffffffffffffffffffffffffffff16146153685761531c5f855f5f614d90565b600160035f8373ffffffffffffffffffffffffffffffffffffffff1673ffffffffffffffffffffffffffffffffffffffff1681526020019081526020015f205f82825403925050819055505b5f73ffffffffffffffffffffffffffffffffffffffff168573ffffffffffffffffffffffffffffffffffffffff16146153e757600160035f8773ffffffffffffffffffffffffffffffffffffffff1673ffffffffffffffffffffffffffffffffffffffff1681526020019081526020015f205f82825401925050819055505b8460025f8681526020019081526020015f205f6101000a81548173ffffffffffffffffffffffffffffffffffffffff021916908373ffffffffffffffffffffffffffffffffffffffff160217905550838573ffffffffffffffffffffffffffffffffffffffff168273ffffffffffffffffffffffffffffffffffffffff167fddf252ad1be2c89b69c2b068fc378daa952ba7f163c4a11628f55a4df523b3ef60405160405180910390a4809150509392505050565b600980549050600a5f8381526020019081526020015f2081905550600981908060018154018082558091505060019003905f5260205f20015f909190919091505550565b5f6154ea83612034565b90505f60085f8481526020019081526020015f205490505f60075f8673ffffffffffffffffffffffffffffffffffffffff1673ffffffffffffffffffffffffffffffffffffffff1681526020019081526020015f209050828214615589575f815f8581526020019081526020015f2054905080825f8581526020019081526020015f20819055508260085f8381526020019081526020015f2081905550505b60085f8581526020019081526020015f205f9055805f8481526020019081526020015f205f90555050505050565b5f60016009805490506155ca9190617f69565b90505f600a5f8481526020019081526020015f205490505f600983815481106155f6576155f5616b78565b5b905f5260205f2001549050806009838154811061561657615615616b78565b5b905f5260205f20018190555081600a5f8381526020019081526020015f2081905550600a5f8581526020019081526020015f205f9055600980548061565e5761565d617fff565b5b600190038181905f5260205f20015f9055905550505050565b5f600161568384612034565b61568d9190617f69565b90508160075f8573ffffffffffffffffffffffffffffffffffffffff1673ffffffffffffffffffffffffffffffffffffffff1681526020019081526020015f205f8381526020019081526020015f20819055508060085f8481526020019081526020015f2081905550505050565b60605f6001615709846158e8565b0190505f8167ffffffffffffffff811115615727576157266164c0565b5b6040519080825280601f01601f1916602001820160405280156157595781602001600182028036833780820191505090505b5090505f82602083010190505b6001156157ba578080600190039150507f3031323334353637383961626364656600000000000000000000000000000000600a86061a8153600a85816157af576157ae61773a565b5b0494505f8503615766575b819350505050919050565b5f634906490660e01b7bffffffffffffffffffffffffffffffffffffffffffffffffffffffff1916827bffffffffffffffffffffffffffffffffffffffffffffffffffffffff1916148061581e575061581d82615a39565b5b9050919050565b615830838383615b1a565b6158e3575f73ffffffffffffffffffffffffffffffffffffffff168373ffffffffffffffffffffffffffffffffffffffff16036158a457806040517f7e27328900000000000000000000000000000000000000000000000000000000815260040161589b9190616186565b60405180910390fd5b81816040517f177e802f0000000000000000000000000000000000000000000000000000000081526004016158da929190616379565b60405180910390fd5b505050565b5f5f5f90507a184f03e93ff9f4daa797ed6e38ed64bf6a1f0100000000000000008310615944577a184f03e93ff9f4daa797ed6e38ed64bf6a1f010000000000000000838161593a5761593961773a565b5b0492506040810190505b6d04ee2d6d415b85acef81000000008310615981576d04ee2d6d415b85acef810000000083816159775761597661773a565b5b0492506020810190505b662386f26fc1000083106159b057662386f26fc1000083816159a6576159a561773a565b5b0492506010810190505b6305f5e10083106159d9576305f5e10083816159cf576159ce61773a565b5b0492506008810190505b61271083106159fe5761271083816159f4576159f361773a565b5b0492506004810190505b60648310615a215760648381615a1757615a1661773a565b5b0492506002810190505b600a8310615a30576001810190505b80915050919050565b5f7f80ac58cd000000000000000000000000000000000000000000000000000000007bffffffffffffffffffffffffffffffffffffffffffffffffffffffff1916827bffffffffffffffffffffffffffffffffffffffffffffffffffffffff19161480615b0357507f5b5e139f000000000000000000000000000000000000000000000000000000007bffffffffffffffffffffffffffffffffffffffffffffffffffffffff1916827bffffffffffffffffffffffffffffffffffffffffffffffffffffffff1916145b80615b135750615b1282615bda565b5b9050919050565b5f5f73ffffffffffffffffffffffffffffffffffffffff168373ffffffffffffffffffffffffffffffffffffffff1614158015615bd157508273ffffffffffffffffffffffffffffffffffffffff168473ffffffffffffffffffffffffffffffffffffffff161480615b925750615b918484613082565b5b80615bd057508273ffffffffffffffffffffffffffffffffffffffff16615bb8836143cb565b73ffffffffffffffffffffffffffffffffffffffff16145b5b90509392505050565b5f7f01ffc9a7000000000000000000000000000000000000000000000000000000007bffffffffffffffffffffffffffffffffffffffffffffffffffffffff1916827bffffffffffffffffffffffffffffffffffffffffffffffffffffffff1916149050919050565b5080545f8255905f5260205f2090810190615c5e9190615cf5565b50565b604051806101c00160405280606081526020016060815260200160608152602001606081526020016060815260200160608152602001606081526020015f60ff1681526020015f60ff1681526020015f151581526020015f81526020015f73ffffffffffffffffffffffffffffffffffffffff1681526020015f6bffffffffffffffffffffffff1681526020015f81525090565b5b80821115615d14575f8181615d0b9190615d18565b50600101615cf6565b5090565b508054615d2490616dba565b5f825580601f10615d355750615d52565b601f0160209004905f5260205f2090810190615d519190615d55565b5b50565b5b80821115615d6c575f815f905550600101615d56565b5090565b5f604051905090565b5f5ffd5b5f5ffd5b5f7fffffffff0000000000000000000000000000000000000000000000000000000082169050919050565b615db581615d81565b8114615dbf575f5ffd5b50565b5f81359050615dd081615dac565b92915050565b5f60208284031215615deb57615dea615d79565b5b5f615df884828501615dc2565b91505092915050565b5f8115159050919050565b615e1581615e01565b82525050565b5f602082019050615e2e5f830184615e0c565b92915050565b5f73ffffffffffffffffffffffffffffffffffffffff82169050919050565b5f615e5d82615e34565b9050919050565b615e6d81615e53565b8114615e77575f5ffd5b50565b5f81359050615e8881615e64565b92915050565b5f5ffd5b5f5ffd5b5f5ffd5b5f5f83601f840112615eaf57615eae615e8e565b5b8235905067ffffffffffffffff811115615ecc57615ecb615e92565b5b602083019150836020820283011115615ee857615ee7615e96565b5b9250929050565b5f5f5f60408486031215615f0657615f05615d79565b5b5f615f1386828701615e7a565b935050602084013567ffffffffffffffff811115615f3457615f33615d7d565b5b615f4086828701615e9a565b92509250509250925092565b5f81519050919050565b5f82825260208201905092915050565b5f819050602082019050919050565b5f819050919050565b615f8781615f75565b82525050565b5f615f988383615f7e565b60208301905092915050565b5f602082019050919050565b5f615fba82615f4c565b615fc48185615f56565b9350615fcf83615f66565b805f5b83811015615fff578151615fe68882615f8d565b9750615ff183615fa4565b925050600181019050615fd2565b5085935050505092915050565b5f6020820190508181035f8301526160248184615fb0565b905092915050565b5f81519050919050565b5f82825260208201905092915050565b8281835e5f83830152505050565b5f601f19601f8301169050919050565b5f61606e8261602c565b6160788185616036565b9350616088818560208601616046565b61609181616054565b840191505092915050565b5f6020820190508181035f8301526160b48184616064565b905092915050565b6160c581615f75565b81146160cf575f5ffd5b50565b5f813590506160e0816160bc565b92915050565b5f602082840312156160fb576160fa615d79565b5b5f616108848285016160d2565b91505092915050565b61611a81615e53565b82525050565b5f6020820190506161335f830184616111565b92915050565b5f5f6040838503121561614f5761614e615d79565b5b5f61615c85828601615e7a565b925050602061616d858286016160d2565b9150509250929050565b61618081615f75565b82525050565b5f6020820190506161995f830184616177565b92915050565b5f5f5f606084860312156161b6576161b5615d79565b5b5f6161c386828701615e7a565b93505060206161d486828701615e7a565b92505060406161e5868287016160d2565b9150509250925092565b5f819050919050565b616201816161ef565b811461620b575f5ffd5b50565b5f8135905061621c816161f8565b92915050565b5f6020828403121561623757616236615d79565b5b5f6162448482850161620e565b91505092915050565b616256816161ef565b82525050565b5f60208201905061626f5f83018461624d565b92915050565b5f5f83601f84011261628a57616289615e8e565b5b8235905067ffffffffffffffff8111156162a7576162a6615e92565b5b6020830191508360018202830111156162c3576162c2615e96565b5b9250929050565b5f5f5f5f606085870312156162e2576162e1615d79565b5b5f6162ef878288016160d2565b945050602085013567ffffffffffffffff8111156163105761630f615d7d565b5b61631c87828801616275565b9350935050604061632f878288016160d2565b91505092959194509250565b5f5f6040838503121561635157616350615d79565b5b5f61635e858286016160d2565b925050602061636f858286016160d2565b9150509250929050565b5f60408201905061638c5f830185616111565b6163996020830184616177565b9392505050565b5f5f604083850312156163b6576163b5615d79565b5b5f6163c38582860161620e565b92505060206163d485828601615e7a565b9150509250929050565b5f602082840312156163f3576163f2615d79565b5b5f61640084828501615e7a565b91505092915050565b5f5f6020838503121561641f5761641e615d79565b5b5f83013567ffffffffffffffff81111561643c5761643b615d7d565b5b61644885828601616275565b92509250509250929050565b61645d81615e01565b8114616467575f5ffd5b50565b5f8135905061647881616454565b92915050565b5f5f6040838503121561649457616493615d79565b5b5f6164a185828601615e7a565b92505060206164b28582860161646a565b9150509250929050565b5f5ffd5b7f4e487b71000000000000000000000000000000000000000000000000000000005f52604160045260245ffd5b6164f682616054565b810181811067ffffffffffffffff82111715616515576165146164c0565b5b80604052505050565b5f616527615d70565b905061653382826164ed565b919050565b5f67ffffffffffffffff821115616552576165516164c0565b5b61655b82616054565b9050602081019050919050565b828183375f83830152505050565b5f61658861658384616538565b61651e565b9050828152602081018484840111156165a4576165a36164bc565b5b6165af848285616568565b509392505050565b5f82601f8301126165cb576165ca615e8e565b5b81356165db848260208601616576565b91505092915050565b5f5f5f5f608085870312156165fc576165fb615d79565b5b5f61660987828801615e7a565b945050602061661a87828801615e7a565b935050604061662b878288016160d2565b925050606085013567ffffffffffffffff81111561664c5761664b615d7d565b5b616658878288016165b7565b91505092959194509250565b5f5f83601f84011261667957616678615e8e565b5b8235905067ffffffffffffffff81111561669657616695615e92565b5b6020830191508360208202830111156166b2576166b1615e96565b5b9250929050565b5f5f5f604084860312156166d0576166cf615d79565b5b5f6166dd868287016160d2565b935050602084013567ffffffffffffffff8111156166fe576166fd615d7d565b5b61670a86828701616664565b92509250509250925092565b5f82825260208201905092915050565b5f6167308261602c565b61673a8185616716565b935061674a818560208601616046565b61675381616054565b840191505092915050565b5f81519050919050565b5f82825260208201905092915050565b5f819050602082019050919050565b5f6167928383616726565b905092915050565b5f602082019050919050565b5f6167b08261675e565b6167ba8185616768565b9350836020820285016167cc85616778565b805f5b8581101561680757848403895281516167e88582616787565b94506167f38361679a565b925060208a019950506001810190506167cf565b50829750879550505050505092915050565b5f60ff82169050919050565b61682e81616819565b82525050565b61683d81615e01565b82525050565b61684c81615e53565b82525050565b5f6bffffffffffffffffffffffff82169050919050565b61687281616852565b82525050565b5f6101c083015f8301518482035f8601526168938282616726565b915050602083015184820360208601526168ad8282616726565b915050604083015184820360408601526168c78282616726565b915050606083015184820360608601526168e18282616726565b915050608083015184820360808601526168fb82826167a6565b91505060a083015184820360a08601526169158282616726565b91505060c083015184820360c086015261692f8282616726565b91505060e083015161694460e0860182616825565b50610100830151616959610100860182616825565b5061012083015161696e610120860182616834565b50610140830151616983610140860182615f7e565b50610160830151616998610160860182616843565b506101808301516169ad610180860182616869565b506101a08301516169c26101a0860182615f7e565b508091505092915050565b5f6020820190508181035f8301526169e58184616878565b905092915050565b5f5f60408385031215616a0357616a02615d79565b5b5f616a1085828601615e7a565b9250506020616a2185828601615e7a565b9150509250929050565b5f5ffd5b5f6101c08284031215616a4557616a44616a2b565b5b81905092915050565b5f5f60408385031215616a6457616a63615d79565b5b5f616a7185828601615e7a565b925050602083013567ffffffffffffffff811115616a9257616a91615d7d565b5b616a9e85828601616a2f565b9150509250929050565b7f417373657433444e46543a20456d707479206d657461646174612061727261795f82015250565b5f616adc602083616036565b9150616ae782616aa8565b602082019050919050565b5f6020820190508181035f830152616b0981616ad0565b9050919050565b7f417373657433444e46543a2042617463682073697a6520746f6f206c617267655f82015250565b5f616b44602083616036565b9150616b4f82616b10565b602082019050919050565b5f6020820190508181035f830152616b7181616b38565b9050919050565b7f4e487b71000000000000000000000000000000000000000000000000000000005f52603260045260245ffd5b5f5ffd5b5f5ffd5b5f5ffd5b5f823560016101c003833603038112616bcd57616bcc616ba5565b5b80830191505092915050565b5f5f83356001602003843603038112616bf557616bf4616ba5565b5b80840192508235915067ffffffffffffffff821115616c1757616c16616ba9565b5b602083019250600182023603831315616c3357616c32616bad565b5b509250929050565b5f81905092915050565b5f616c508385616c3b565b9350616c5d838584616568565b82840190509392505050565b5f616c75828486616c45565b91508190509392505050565b7f417373657433444e46543a204d65736879207461736b20616c7265616479206d5f8201527f696e746564000000000000000000000000000000000000000000000000000000602082015250565b5f616cdb602583616036565b9150616ce682616c81565b604082019050919050565b5f6020820190508181035f830152616d0881616ccf565b9050919050565b7f4e487b71000000000000000000000000000000000000000000000000000000005f52601160045260245ffd5b5f616d4682615f75565b91507fffffffffffffffffffffffffffffffffffffffffffffffffffffffffffffffff8203616d7857616d77616d0f565b5b600182019050919050565b5f82905092915050565b7f4e487b71000000000000000000000000000000000000000000000000000000005f52602260045260245ffd5b5f6002820490506001821680616dd157607f821691505b602082108103616de457616de3616d8d565b5b50919050565b5f819050815f5260205f209050919050565b5f6020601f8301049050919050565b5f82821b905092915050565b5f60088302616e467fffffffffffffffffffffffffffffffffffffffffffffffffffffffffffffffff82616e0b565b616e508683616e0b565b95508019841693508086168417925050509392505050565b5f819050919050565b5f616e8b616e86616e8184615f75565b616e68565b615f75565b9050919050565b5f819050919050565b616ea483616e71565b616eb8616eb082616e92565b848454616e17565b825550505050565b5f5f905090565b616ecf616ec0565b616eda818484616e9b565b505050565b5b81811015616efd57616ef25f82616ec7565b600181019050616ee0565b5050565b601f821115616f4257616f1381616dea565b616f1c84616dfc565b81016020851015616f2b578190505b616f3f616f3785616dfc565b830182616edf565b50505b505050565b5f82821c905092915050565b5f616f625f1984600802616f47565b1980831691505092915050565b5f616f7a8383616f53565b9150826002028217905092915050565b616f948383616d83565b67ffffffffffffffff811115616fad57616fac6164c0565b5b616fb78254616dba565b616fc2828285616f01565b5f601f831160018114616fef575f8415616fdd578287013590505b616fe78582616f6f565b86555061704e565b601f198416616ffd86616dea565b5f5b8281101561702457848901358255600182019150602085019450602081019050616fff565b86831015617041578489013561703d601f891682616f53565b8355505b6001600288020188555050505b50505050505050565b61706081616819565b811461706a575f5ffd5b50565b5f8135905061707b81617057565b92915050565b5f6020828403121561709657617095615d79565b5b5f6170a38482850161706d565b91505092915050565b5f602082840312156170c1576170c0615d79565b5b5f6170ce8482850161646a565b91505092915050565b6170e081616852565b81146170ea575f5ffd5b50565b5f813590506170fb816170d7565b92915050565b5f6020828403121561711657617115615d79565b5b5f617123848285016170ed565b91505092915050565b5f5f8335600160200384360303811261714857617147616ba5565b5b80840192508235915067ffffffffffffffff82111561716a57617169616ba9565b5b60208301925060208202360383131561718657617185616bad565b5b509250929050565b5f5ffd5b5f5ffd5b5f67ffffffffffffffff8211156171b0576171af6164c0565b5b6171b982616054565b9050602081019050919050565b5f6171d86171d384617196565b61651e565b9050828152602081018484840111156171f4576171f36164bc565b5b6171ff848285616568565b509392505050565b5f82601f83011261721b5761721a615e8e565b5b813561722b8482602086016171c6565b91505092915050565b5f67ffffffffffffffff82111561724e5761724d6164c0565b5b602082029050602081019050919050565b5f61727161726c84617234565b61651e565b9050808382526020820190506020840283018581111561729457617293615e96565b5b835b818110156172db57803567ffffffffffffffff8111156172b9576172b8615e8e565b5b8086016172c68982617207565b85526020850194505050602081019050617296565b5050509392505050565b5f82601f8301126172f9576172f8615e8e565b5b813561730984826020860161725f565b91505092915050565b5f6101c082840312156173285761732761718e565b5b6173336101c061651e565b90505f82013567ffffffffffffffff81111561735257617351617192565b5b61735e84828501617207565b5f83015250602082013567ffffffffffffffff81111561738157617380617192565b5b61738d84828501617207565b602083015250604082013567ffffffffffffffff8111156173b1576173b0617192565b5b6173bd84828501617207565b604083015250606082013567ffffffffffffffff8111156173e1576173e0617192565b5b6173ed84828501617207565b606083015250608082013567ffffffffffffffff81111561741157617410617192565b5b61741d848285016172e5565b60808301525060a082013567ffffffffffffffff81111561744157617440617192565b5b61744d84828501617207565b60a08301525060c082013567ffffffffffffffff81111561747157617470617192565b5b61747d84828501617207565b60c08301525060e06174918482850161706d565b60e0830152506101006174a68482850161706d565b610100830152506101206174bc8482850161646a565b610120830152506101406174d2848285016160d2565b610140830152506101606174e884828501615e7a565b610160830152506101806174fe848285016170ed565b610180830152506101a0617514848285016160d2565b6101a08301525092915050565b5f61752c3683617312565b9050919050565b5f61753e8385616036565b935061754b838584616568565b61755483616054565b840190509392505050565b61756881616819565b82525050565b5f6040820190508181035f830152617587818587617533565b9050617596602083018461755f565b949350505050565b5f6060820190506175b15f830186616111565b6175be6020830185616177565b6175cb6040830184616111565b949350505050565b7f417373657433444e46543a20546f6b656e20646f6573206e6f742065786973745f82015250565b5f617607602083616036565b9150617612826175d3565b602082019050919050565b5f6020820190508181035f830152617634816175fb565b9050919050565b7f417373657433444e46543a2041737365742063616e6e6f7420626520757067725f8201527f6164656400000000000000000000000000000000000000000000000000000000602082015250565b5f617695602483616036565b91506176a08261763b565b604082019050919050565b5f6020820190508181035f8301526176c281617689565b9050919050565b5f6040820190508181035f8301526176e2818587617533565b90506176f16020830184616177565b949350505050565b5f61770382615f75565b915061770e83615f75565b925082820261771c81615f75565b9150828204841483151761773357617732616d0f565b5b5092915050565b7f4e487b71000000000000000000000000000000000000000000000000000000005f52601260045260245ffd5b5f61777182615f75565b915061777c83615f75565b92508261778c5761778b61773a565b5b828204905092915050565b5f6020820190508181035f8301526177b0818486617533565b90509392505050565b5f82825260208201905092915050565b5f819050919050565b5f6177dd8385616716565b93506177ea838584616568565b6177f383616054565b840190509392505050565b5f61780a8484846177d2565b90509392505050565b5f5ffd5b5f5ffd5b5f5ffd5b5f5f8335600160200384360303811261783b5761783a61781b565b5b83810192508235915060208301925067ffffffffffffffff82111561786357617862617813565b5b60018202360383131561787957617878617817565b5b509250929050565b5f602082019050919050565b5f61789883856177b9565b9350836020840285016178aa846177c9565b805f5b878110156178ef5784840389526178c4828461781f565b6178cf8682846177fe565b95506178da84617881565b935060208b019a5050506001810190506178ad565b50829750879450505050509392505050565b5f6020820190508181035f83015261791a81848661788d565b90509392505050565b7f4c69624d657461646174613a204e616d652063616e6e6f7420626520656d70745f8201527f7900000000000000000000000000000000000000000000000000000000000000602082015250565b5f61797d602183616036565b915061798882617923565b604082019050919050565b5f6020820190508181035f8301526179aa81617971565b9050919050565b7f4c69624d657461646174613a204d6f64656c2055524c2063616e6e6f742062655f8201527f20656d7074790000000000000000000000000000000000000000000000000000602082015250565b5f617a0b602683616036565b9150617a16826179b1565b604082019050919050565b5f6020820190508181035f830152617a38816179ff565b9050919050565b7f4c69624d657461646174613a2043726561746f722063616e6e6f74206265207a5f8201527f65726f2061646472657373000000000000000000000000000000000000000000602082015250565b5f617a99602b83616036565b9150617aa482617a3f565b604082019050919050565b5f6020820190508181035f830152617ac681617a8d565b9050919050565b7f4c69624d657461646174613a20526f79616c74792063616e6e6f7420657863655f8201527f6564203130302500000000000000000000000000000000000000000000000000602082015250565b5f617b27602783616036565b9150617b3282617acd565b604082019050919050565b5f6020820190508181035f830152617b5481617b1b565b9050919050565b7f4c69624d657461646174613a20496e76616c696420617274207374796c6500005f82015250565b5f617b8f601e83616036565b9150617b9a82617b5b565b602082019050919050565b5f6020820190508181035f830152617bbc81617b83565b9050919050565b7f4c69624d657461646174613a20496e76616c6964206d6f6465000000000000005f82015250565b5f617bf7601983616036565b9150617c0282617bc3565b602082019050919050565b5f6020820190508181035f830152617c2481617beb565b9050919050565b7f4c69624d657461646174613a20506f6c79636f756e74206d75737420626520705f8201527f6f73697469766500000000000000000000000000000000000000000000000000602082015250565b5f617c85602783616036565b9150617c9082617c2b565b604082019050919050565b5f6020820190508181035f830152617cb281617c79565b9050919050565b5f617cd3617cce617cc984616852565b616e68565b615f75565b9050919050565b617ce381617cb9565b82525050565b5f606082019050617cfc5f830186616177565b617d096020830185617cda565b617d166040830184616177565b949350505050565b5f604082019050617d315f830185616177565b617d3e6020830184616111565b9392505050565b5f617d4f8261602c565b617d598185616c3b565b9350617d69818560208601616046565b80840191505092915050565b5f617d808285617d45565b9150617d8c8284617d45565b91508190509392505050565b617da18261602c565b67ffffffffffffffff811115617dba57617db96164c0565b5b617dc48254616dba565b617dcf828285616f01565b5f60209050601f831160018114617e00575f8415617dee578287015190505b617df88582616f6f565b865550617e5f565b601f198416617e0e86616dea565b5f5b82811015617e3557848901518255600182019150602085019450602081019050617e10565b86831015617e525784890151617e4e601f891682616f53565b8355505b6001600288020188555050505b505050505050565b5f81519050919050565b5f82825260208201905092915050565b5f617e8b82617e67565b617e958185617e71565b9350617ea5818560208601616046565b617eae81616054565b840191505092915050565b5f608082019050617ecc5f830187616111565b617ed96020830186616111565b617ee66040830185616177565b8181036060830152617ef88184617e81565b905095945050505050565b5f81519050617f1181615dac565b92915050565b5f60208284031215617f2c57617f2b615d79565b5b5f617f3984828501617f03565b91505092915050565b5f604082019050617f555f830185616111565b617f62602083018461624d565b9392505050565b5f617f7382615f75565b9150617f7e83615f75565b9250828203905081811115617f9657617f95616d0f565b5b92915050565b5f617fa682615f75565b9150617fb183615f75565b925082617fc157617fc061773a565b5b828206905092915050565b5f617fd682615f75565b9150617fe183615f75565b9250828201905080821115617ff957617ff8616d0f565b5b92915050565b7f4e487b71000000000000000000000000000000000000000000000000000000005f52603160045260245ffdfea2646970667358221220edf6b0c2625ecc45f64e27894d86ffa1b23a4a1cf5faa7739946cfceed640afc64736f6c634300081e0033","linkReferences":{}},"methodIdentifiers":{"DEFAULT_ADMIN_ROLE()":"a217fddf","MINTER_ROLE()":"d5391393","PAUSER_ROLE()":"e63ab1e9","UPGRADER_ROLE()":"f72c0d8b","approve(address,uint256)":"095ea7b3","balanceOf(address)":"70a08231","batchMint(address,(string,string,string,string,string[],string,string,uint8,uint8,bool,uint256,address,uint96,uint256)[])":"03765902","canUpgrade(uint256)":"f527e29a","getApproved(uint256)":"081812fc","getAssetMetadata(uint256)":"cf2acf84","getAssetsByCreator(address)":"ed5eb958","getRoleAdmin(bytes32)":"248a9ca3","grantRole(bytes32,address)":"2f2ff15d","hasRole(bytes32,address)":"91d14854","isApprovedForAll(address,address)":"e985e9c5","mint(address,(string,string,string,string,string[],string,string,uint8,uint8,bool,uint256,address,uint96,uint256))":"fc2564cc","name()":"06fdde03","ownerOf(uint256)":"6352211e","pause()":"8456cb59","paused()":"5c975abb","renounceRole(bytes32,address)":"36568abe","revokeRole(bytes32,address)":"d547741f","royaltyInfo(uint256,uint256)":"2a55205a","safeTransferFrom(address,address,uint256)":"42842e0e","safeTransferFrom(address,address,uint256,bytes)":"b88d4fde","setApprovalForAll(address,bool)":"a22cb465","setBaseUri(string)":"a0bcfc7f","supportsInterface(bytes4)":"01ffc9a7","symbol()":"95d89b41","tokenByIndex(uint256)":"4f6ccce7","tokenOfOwnerByIndex(address,uint256)":"2f745c59","tokenURI(uint256)":"c87b56dd","totalSupply()":"18160ddd","transferFrom(address,address,uint256)":"23b872dd","unpause()":"3f4ba83a","updateTexture(uint256,string[])":"c52f7e91","upgradeAsset(uint256,string,uint256)":"292a626d"},"id":47}